:100000000C9443000C9460000C9460000C9460000D
:100010000C9460000C9477010C9460000C946000C8
:100020000C9460000C9460000C9460000C946000D0
:100030000C9460000C9460000C9460000C946000C0
:100040000C9460000C9460000C9460000C946000B0
:100050000C9460000C9460000C9460000C946000A0
:100060000C9460000C946000456E746572207061A1
:100070007373776F72643A005365742070617373A1
:10008000776F72643A0011241FBECFEFD8E0DEBF55
:10009000CDBF11E0A0E0B1E0E6E1F7E002C00590DD
:1000A0000D92A633B107D9F721E0A6E3B1E001C074
:1000B0001D92AE34B207E1F70E9441030C9489030C
:1000C0000C9400009BB19F709BB99BB1807F892BE2
:1000D0008BB985B1877785B92F9A2F9A2F98089574
:1000E000CF93C82F0E9462008C2F8295807FCF9182
:1000F0000C9462002C980E94700083E393E10197B6
:10010000F1F708950F931F93CF93DF931F92CDB70D
:10011000DEB7082F823011F414E109C0833031F0CA
:10012000162F80E4089F100D112402C014E5160F4D
:10013000812F806869830E947A006981023011F4FE
:1001400014E103C0033011F414E5160F812F806809
:100150000F90DF91CF911F910F910C947A002C9A00
:100160000E94700083E393E10197F1F70895CF9324
:10017000DF93FC018491EF012196882321F00E94F6
:10018000AF00FE01F7CFDF91CF910895CF93DF93BA
:10019000EC018991882319F00E94AF00FACFDF911A
:1001A000CF9108958AB1806F8AB984B1886984B982
:1001B0002C988FEF9FE80197F1F700C0000080E3D3
:1001C0000E9462008FEF9FE20197F1F700C00000EC
:1001D00080E30E94620086E291E00197F1F700C09F
:1001E000000080E30E94620083E393E10197F1F74E
:1001F00080E20E94620083E393E10197F1F788E2D5
:100200000E947A008FE00C947A0083E393E10197D7
:10021000F1F7089560E080E00E94820081E00C9494
:100220007A00CF93DF93CDB7DEB72C970FB6F89453
:10023000DEBF0FBECDBF389A399A3A9A439A449A94
:10024000459A589A8CE0E0E0F1E0DE0111960190C9
:100250000D928A95E1F780E090E061E070E028B1CE
:10026000276028B948B19B01082E01C0220F0A94CB
:10027000EAF72095242328B923E030E0263039F42A
:10028000489922C0E1E0F0E0EC0FFD1F19C046B133
:1002900050E0022E02C0559547950A94E2F740FDC2
:1002A00013C046E050E0421B530BFA01EE0FFF1F54
:1002B000E40FF51FE80FF91F81E090E08C0F9D1F00
:1002C000E80FF91F80810AC02F5F3F4F27303105AB
:1002D000A9F601968330910511F68CE32C960FB6A2
:1002E000F894DEBF0FBECDBFDF91CF9108951F926E
:1002F0000F920FB60F9211242F933F934F935F935A
:100300006F937F938F939F93AF93BF93EF93FF93DD
:1003100060E083E00E94820080E70E94AF00FF91CE
:10032000EF91BF91AF919F918F917F916F915F916D
:100330004F913F912F910F900FBE0F901F901895E6
:10034000CF93DF930E9411018C3309F461C09DEDBE
:10035000980F973108F041C0209146013091470134
:10036000232B81F4E0914A01F0914B01EA5CFE4FAE
:10037000808380914A0190914B010697D9F41092A5
:100380003C0118C0209146013091470122303105CF
:1003900039F020914601309147012130310551F467
:1003A000E0914A01F0914B01EA5CFE4F9081981375
:1003B00010924901609144017091450182E00E94D0
:1003C00082008AE20E94AF0080914A0190914B0125
:1003D000019690934B0180934A01C8E7D0E00E94B8
:1003E000050121972097D9F780914401909145010B
:1003F000059754F4809144019091450101969093A2
:1004000045018093440104C01092450110924401BB
:10041000DF91CF91089560E082E00E948200809198
:100420004A0190914B0106972CF50E94A001809102
:100430004C0190914D010A9729F410924D011092B0
:100440004C01EDCF8091460190914701029739F719
:1004500080914C0190914D01019690934D018093B4
:100460004C010E9405010E94A0010E9405010E940A
:10047000A001D5CF80914A0190914B01069709F0D8
:1004800049C08091460190914701892B39F481E060
:1004900090E0909347018093460135C080914901D7
:1004A0008823C1F08091460190914701019719F48A
:1004B00082E090E008C08091460190914701029748
:1004C00011F581E090E090934701809346011092EE
:1004D000480119C080914901811115C080914601E0
:1004E000909147018130910571F38091460190917F
:1004F00047018230910539F490934701809346017A
:1005000081E08093480110924B0110924A0181E0F2
:10051000809349010895CF93DF93CDB7DEB72E972F
:100520000FB6F894DEBF0FBECDBF8EE0ECE0F1E079
:10053000DE01119601900D928A95E1F70E94D2009A
:100540000E940A0160E080E00E948200CE010196D4
:100550000E94C60060E082E00E9482002E960FB6E4
:10056000F894DEBF0FBECDBFDF91CF910895CF933A
:10057000DF93CDB7DEB727970FB6F894DEBF0FBE77
:10058000CDBF6CE080E00E94820087E0ECE1F1E00A
:10059000DE01119601900D928A95E1F70E94D2003A
:1005A0000E940A0160E080E00E948200CE01019674
:1005B0000E94C60060E082E00E94820027960FB68B
:1005C000F894DEBF0FBECDBFDF91CF910895519A51
:1005D00088EE93E05998E6E2F1E03197F1F700C038
:1005E0000000599AE6E2F1E03197F1F700C000000F
:1005F0000197009779F7089551980895CF93DF9365
:10060000CDB7DEB76C970FB6F894DEBF0FBECDBF87
:100610006CE080E00E94820089E0EAE1F1E0DE0126
:10062000549601900D928A95E1F783E1E3E2F1E0BF
:10063000DE01119601900D928A95E1F70E94D20099
:100640000E940A0160E080E00E948200CE01449690
:100650000E94C60060E081E00E948200CE01019607
:100660000E94C60060E082E00E9482000E94FC02BC
:100670006C960FB6F894DEBF0FBECDBFDF91CF9161
:1006800008958091680084608093680080916D0077
:10069000846080936D007894539A0E94D2000E94E7
:1006A0000A0160E080E00E948200109247011092EF
:1006B0004601109245011092440110924B01109294
:1006C0004A0181E0809349011092480110924D0146
:1006D00010924C018091460190914701892B19F4A9
:1006E0000E948B0213C080914601909147010197AF
:1006F00021F45B980E94FE0209C08091460190910E
:100700004701029739F75B9A0E94B7020E940B02D9
:06071000E1CFF894FFCFD9
:100716002A3023373839343536313233536574202D
:1007260070617373776F72643A00554E4C4F434B4A
:10073600454400456E7465722070776420746F209E
:060746006C6F636B3A00CA
:00000001FF
